{
  "_format": "hh-sol-artifact-1",
  "contractName": "MemeUploader",
  "sourceName": "contracts/MemeUploader.sol",
  "abi": [
    {
      "anonymous": false,
      "inputs": [
        {
          "indexed": false,
          "internalType": "address",
          "name": "from",
          "type": "address"
        },
        {
          "indexed": false,
          "internalType": "address",
          "name": "reciever",
          "type": "address"
        },
        {
          "indexed": false,
          "internalType": "uint256",
          "name": "amount",
          "type": "uint256"
        },
        {
          "indexed": false,
          "internalType": "string",
          "name": "message",
          "type": "string"
        },
        {
          "indexed": false,
          "internalType": "string",
          "name": "username",
          "type": "string"
        },
        {
          "indexed": false,
          "internalType": "uint256",
          "name": "timestamp",
          "type": "uint256"
        }
      ],
      "name": "Transfer",
      "type": "event"
    },
    {
      "inputs": [
        {
          "internalType": "string",
          "name": "hash",
          "type": "string"
        }
      ],
      "name": "addImagesToBlockchain",
      "outputs": [],
      "stateMutability": "nonpayable",
      "type": "function"
    },
    {
      "inputs": [
        {
          "internalType": "address payable",
          "name": "receiver",
          "type": "address"
        },
        {
          "internalType": "uint256",
          "name": "amount",
          "type": "uint256"
        },
        {
          "internalType": "string",
          "name": "message",
          "type": "string"
        },
        {
          "internalType": "string",
          "name": "username",
          "type": "string"
        }
      ],
      "name": "addTransactionToBlockchain",
      "outputs": [],
      "stateMutability": "nonpayable",
      "type": "function"
    },
    {
      "inputs": [],
      "name": "getAllTransactions",
      "outputs": [
        {
          "components": [
            {
              "internalType": "address",
              "name": "sender",
              "type": "address"
            },
            {
              "internalType": "address",
              "name": "reciever",
              "type": "address"
            },
            {
              "internalType": "uint256",
              "name": "amount",
              "type": "uint256"
            },
            {
              "internalType": "string",
              "name": "message",
              "type": "string"
            },
            {
              "internalType": "string",
              "name": "username",
              "type": "string"
            },
            {
              "internalType": "uint256",
              "name": "timestamp",
              "type": "uint256"
            }
          ],
          "internalType": "struct MemeUploader.TransferStruct[]",
          "name": "",
          "type": "tuple[]"
        }
      ],
      "stateMutability": "view",
      "type": "function"
    },
    {
      "inputs": [],
      "name": "getImageCount",
      "outputs": [
        {
          "internalType": "uint256",
          "name": "",
          "type": "uint256"
        }
      ],
      "stateMutability": "view",
      "type": "function"
    },
    {
      "inputs": [],
      "name": "getImages",
      "outputs": [
        {
          "components": [
            {
              "internalType": "string",
              "name": "hash",
              "type": "string"
            },
            {
              "internalType": "uint256",
              "name": "timeOfUpload",
              "type": "uint256"
            }
          ],
          "internalType": "struct MemeUploader.ImageUploadStruct[]",
          "name": "",
          "type": "tuple[]"
        }
      ],
      "stateMutability": "view",
      "type": "function"
    },
    {
      "inputs": [],
      "name": "getTransactionsCount",
      "outputs": [
        {
          "internalType": "uint256",
          "name": "",
          "type": "uint256"
        }
      ],
      "stateMutability": "view",
      "type": "function"
    }
  ],
  "bytecode": "0x608060405234801561001057600080fd5b50610f72806100206000396000f3fe608060405234801561001057600080fd5b50600436106100625760003560e01c8063114983341461006757806327506f5314610085578063578cb8f9146100a3578063bb03b959146100c1578063d5a6478d146100dd578063f97c44a9146100f9575b600080fd5b61006f610117565b60405161007c9190610bc3565b60405180910390f35b61008d610212565b60405161009a9190610be5565b60405180910390f35b6100ab610455565b6040516100b89190610c07565b60405180910390f35b6100db60048036038101906100d69190610877565b61045f565b005b6100f760048036038101906100f291906107e4565b6104e4565b005b6101016106a6565b60405161010e9190610c07565b60405180910390f35b60606003805480602002602001604051908101604052809291908181526020016000905b82821015610209578382906000526020600020906002020160405180604001604052908160008201805461016e90610e3e565b80601f016020809104026020016040519081016040528092919081815260200182805461019a90610e3e565b80156101e75780601f106101bc576101008083540402835291602001916101e7565b820191906000526020600020905b8154815290600101906020018083116101ca57829003601f168201915b505050505081526020016001820154815250508152602001906001019061013b565b50505050905090565b60606002805480602002602001604051908101604052809291908181526020016000905b8282101561044c57838290600052602060002090600602016040518060c00160405290816000820160009054906101000a900473ffffffffffffffffffffffffffffffffffffffff1673ffffffffffffffffffffffffffffffffffffffff1673ffffffffffffffffffffffffffffffffffffffff1681526020016001820160009054906101000a900473ffffffffffffffffffffffffffffffffffffffff1673ffffffffffffffffffffffffffffffffffffffff1673ffffffffffffffffffffffffffffffffffffffff1681526020016002820154815260200160038201805461031f90610e3e565b80601f016020809104026020016040519081016040528092919081815260200182805461034b90610e3e565b80156103985780601f1061036d57610100808354040283529160200191610398565b820191906000526020600020905b81548152906001019060200180831161037b57829003601f168201915b505050505081526020016004820180546103b190610e3e565b80601f01602080910402602001604051908101604052809291908181526020018280546103dd90610e3e565b801561042a5780601f106103ff5761010080835404028352916020019161042a565b820191906000526020600020905b81548152906001019060200180831161040d57829003601f168201915b5050505050815260200160058201548152505081526020019060010190610236565b50505050905090565b6000600154905090565b60016000808282546104719190610d22565b925050819055506003604051806040016040528083815260200142815250908060018154018082558091505060019003906000526020600020906002020160009091909190915060008201518160000190805190602001906104d49291906106af565b5060208201518160010155505050565b60018060008282546104f69190610d22565b9250508190555060026040518060c001604052803373ffffffffffffffffffffffffffffffffffffffff1681526020018673ffffffffffffffffffffffffffffffffffffffff16815260200185815260200184815260200183815260200142815250908060018154018082558091505060019003906000526020600020906006020160009091909190915060008201518160000160006101000a81548173ffffffffffffffffffffffffffffffffffffffff021916908373ffffffffffffffffffffffffffffffffffffffff16021790555060208201518160010160006101000a81548173ffffffffffffffffffffffffffffffffffffffff021916908373ffffffffffffffffffffffffffffffffffffffff1602179055506040820151816002015560608201518160030190805190602001906106359291906106af565b5060808201518160040190805190602001906106529291906106af565b5060a0820151816005015550507f5e245fe3ab1aa0e8ad77928e6d608e234861c6f4cc61f42cdb647db3f4f3ca4633858585854260405161069896959493929190610b54565b60405180910390a150505050565b60008054905090565b8280546106bb90610e3e565b90600052602060002090601f0160209004810192826106dd5760008555610724565b82601f106106f657805160ff1916838001178555610724565b82800160010185558215610724579182015b82811115610723578251825591602001919060010190610708565b5b5090506107319190610735565b5090565b5b8082111561074e576000816000905550600101610736565b5090565b600061076561076084610c53565b610c22565b90508281526020810184848401111561077d57600080fd5b610788848285610dfc565b509392505050565b60008135905061079f81610f0e565b92915050565b600082601f8301126107b657600080fd5b81356107c6848260208601610752565b91505092915050565b6000813590506107de81610f25565b92915050565b600080600080608085870312156107fa57600080fd5b600061080887828801610790565b9450506020610819878288016107cf565b935050604085013567ffffffffffffffff81111561083657600080fd5b610842878288016107a5565b925050606085013567ffffffffffffffff81111561085f57600080fd5b61086b878288016107a5565b91505092959194509250565b60006020828403121561088957600080fd5b600082013567ffffffffffffffff8111156108a357600080fd5b6108af848285016107a5565b91505092915050565b60006108c48383610a69565b905092915050565b60006108d88383610aa6565b905092915050565b6108e981610dc6565b82525050565b6108f881610d78565b82525050565b61090781610d78565b82525050565b600061091882610ca3565b6109228185610cde565b93508360208202850161093485610c83565b8060005b85811015610970578484038952815161095185826108b8565b945061095c83610cc4565b925060208a01995050600181019050610938565b50829750879550505050505092915050565b600061098d82610cae565b6109978185610cef565b9350836020820285016109a985610c93565b8060005b858110156109e557848403895281516109c685826108cc565b94506109d183610cd1565b925060208a019950506001810190506109ad565b50829750879550505050505092915050565b6000610a0282610cb9565b610a0c8185610d00565b9350610a1c818560208601610e0b565b610a2581610efd565b840191505092915050565b6000610a3b82610cb9565b610a458185610d11565b9350610a55818560208601610e0b565b610a5e81610efd565b840191505092915050565b60006040830160008301518482036000860152610a8682826109f7565b9150506020830151610a9b6020860182610b36565b508091505092915050565b600060c083016000830151610abe60008601826108ef565b506020830151610ad160208601826108ef565b506040830151610ae46040860182610b36565b5060608301518482036060860152610afc82826109f7565b91505060808301518482036080860152610b1682826109f7565b91505060a0830151610b2b60a0860182610b36565b508091505092915050565b610b3f81610dbc565b82525050565b610b4e81610dbc565b82525050565b600060c082019050610b6960008301896108fe565b610b7660208301886108e0565b610b836040830187610b45565b8181036060830152610b958186610a30565b90508181036080830152610ba98185610a30565b9050610bb860a0830184610b45565b979650505050505050565b60006020820190508181036000830152610bdd818461090d565b905092915050565b60006020820190508181036000830152610bff8184610982565b905092915050565b6000602082019050610c1c6000830184610b45565b92915050565b6000604051905081810181811067ffffffffffffffff82111715610c4957610c48610ece565b5b8060405250919050565b600067ffffffffffffffff821115610c6e57610c6d610ece565b5b601f19601f8301169050602081019050919050565b6000819050602082019050919050565b6000819050602082019050919050565b600081519050919050565b600081519050919050565b600081519050919050565b6000602082019050919050565b6000602082019050919050565b600082825260208201905092915050565b600082825260208201905092915050565b600082825260208201905092915050565b600082825260208201905092915050565b6000610d2d82610dbc565b9150610d3883610dbc565b9250827fffffffffffffffffffffffffffffffffffffffffffffffffffffffffffffffff03821115610d6d57610d6c610e70565b5b828201905092915050565b6000610d8382610d9c565b9050919050565b6000610d9582610d9c565b9050919050565b600073ffffffffffffffffffffffffffffffffffffffff82169050919050565b6000819050919050565b6000610dd182610dd8565b9050919050565b6000610de382610dea565b9050919050565b6000610df582610d9c565b9050919050565b82818337600083830152505050565b60005b83811015610e29578082015181840152602081019050610e0e565b83811115610e38576000848401525b50505050565b60006002820490506001821680610e5657607f821691505b60208210811415610e6a57610e69610e9f565b5b50919050565b7f4e487b7100000000000000000000000000000000000000000000000000000000600052601160045260246000fd5b7f4e487b7100000000000000000000000000000000000000000000000000000000600052602260045260246000fd5b7f4e487b7100000000000000000000000000000000000000000000000000000000600052604160045260246000fd5b6000601f19601f8301169050919050565b610f1781610d8a565b8114610f2257600080fd5b50565b610f2e81610dbc565b8114610f3957600080fd5b5056fea2646970667358221220cfa92b4549cb429cab5359ac426f513de4c10ca433d64556ca2050bd17f5340264736f6c63430008000033",
  "linkReferences": {},
  "deployedLinkReferences": {}
}